{
  "address": "0xdb54fa574a3e8c6aC784e1a5cdB575A737622CFf",
  "abi": [
    {
      "inputs": [],
      "name": "value",
      "outputs": [
        {
          "internalType": "uint256",
          "name": "",
          "type": "uint256"
        }
      ],
      "stateMutability": "view",
      "type": "function"
    },
    {
      "inputs": [
        {
          "internalType": "uint256",
          "name": "_newValue",
          "type": "uint256"
        }
      ],
      "name": "writeValue",
      "outputs": [],
      "stateMutability": "nonpayable",
      "type": "function"
    }
  ],
  "transactionHash": "0xf54d8d28b5e78b7c617f5876ceacb5a341a53f61cd2c0c8d6dc06cbb36716574",
  "args": [],
  "numDeployments": 1,
  "solcInputHash": "38d9d4ed45913c1a1a88c33b58fe9ce8",
  "bytecode": "0x608060405234801561001057600080fd5b5060b18061001f6000396000f3fe6080604052348015600f57600080fd5b506004361060325760003560e01c80632428607b1460375780633fa4f245146049575b600080fd5b604760423660046063565b600055565b005b605160005481565b60405190815260200160405180910390f35b600060208284031215607457600080fd5b503591905056fea2646970667358221220e945f6d1c0321f186ddf0ab69147d5604b4821fd87e1d6d5fedc1e0acbce8a7964736f6c63430008110033",
  "devdoc": {
    "kind": "dev",
    "methods": {},
    "version": 1
  },
  "userdoc": {
    "kind": "user",
    "methods": {},
    "version": 1
  },
  "storageLayout": {
    "storage": [
      {
        "astId": 3,
        "contract": "contracts/Lock.sol:ButtonContract",
        "label": "value",
        "offset": 0,
        "slot": "0",
        "type": "t_uint256"
      }
    ],
    "types": {
      "t_uint256": {
        "encoding": "inplace",
        "label": "uint256",
        "numberOfBytes": "32"
      }
    }
  }
}