{
  "address": "0xD45DC1c313d2E4381FC075F192DC248551d8Da99",
  "abi": [
    {
      "inputs": [
        {
          "internalType": "address",
          "name": "_stableCoin",
          "type": "address"
        }
      ],
      "stateMutability": "nonpayable",
      "type": "constructor"
    },
    {
      "anonymous": false,
      "inputs": [
        {
          "indexed": true,
          "internalType": "uint256",
          "name": "campaignId",
          "type": "uint256"
        },
        {
          "indexed": true,
          "internalType": "address",
          "name": "creator",
          "type": "address"
        },
        {
          "indexed": false,
          "internalType": "string",
          "name": "title",
          "type": "string"
        },
        {
          "indexed": false,
          "internalType": "uint256",
          "name": "goalAmount",
          "type": "uint256"
        }
      ],
      "name": "CampaignCreated",
      "type": "event"
    },
    {
      "anonymous": false,
      "inputs": [
        {
          "indexed": true,
          "internalType": "uint256",
          "name": "campaignId",
          "type": "uint256"
        },
        {
          "indexed": true,
          "internalType": "address",
          "name": "creator",
          "type": "address"
        },
        {
          "indexed": false,
          "internalType": "string",
          "name": "title",
          "type": "string"
        },
        {
          "indexed": false,
          "internalType": "uint256",
          "name": "totalAmount",
          "type": "uint256"
        }
      ],
      "name": "CampaignFinalized",
      "type": "event"
    },
    {
      "anonymous": false,
      "inputs": [
        {
          "indexed": true,
          "internalType": "uint256",
          "name": "campaignId",
          "type": "uint256"
        },
        {
          "indexed": true,
          "internalType": "address",
          "name": "contributor",
          "type": "address"
        }
      ],
      "name": "ContributionMade",
      "type": "event"
    },
    {
      "anonymous": false,
      "inputs": [
        {
          "indexed": true,
          "internalType": "address",
          "name": "recipient",
          "type": "address"
        },
        {
          "indexed": false,
          "internalType": "uint256",
          "name": "amount",
          "type": "uint256"
        }
      ],
      "name": "FundTokenTransferred",
      "type": "event"
    },
    {
      "anonymous": false,
      "inputs": [
        {
          "indexed": true,
          "internalType": "uint256",
          "name": "campaignId",
          "type": "uint256"
        }
      ],
      "name": "GoalReached",
      "type": "event"
    },
    {
      "inputs": [
        {
          "internalType": "uint256",
          "name": "",
          "type": "uint256"
        }
      ],
      "name": "campaigns",
      "outputs": [
        {
          "internalType": "address",
          "name": "creator",
          "type": "address"
        },
        {
          "internalType": "string",
          "name": "ipfs",
          "type": "string"
        },
        {
          "internalType": "string",
          "name": "club",
          "type": "string"
        },
        {
          "internalType": "uint256",
          "name": "goalAmount",
          "type": "uint256"
        },
        {
          "internalType": "uint256",
          "name": "currentAmount",
          "type": "uint256"
        },
        {
          "internalType": "bool",
          "name": "finalized",
          "type": "bool"
        },
        {
          "internalType": "uint256",
          "name": "endCampaign",
          "type": "uint256"
        }
      ],
      "stateMutability": "view",
      "type": "function"
    },
    {
      "inputs": [],
      "name": "checkAndFinalizeCampaigns",
      "outputs": [],
      "stateMutability": "nonpayable",
      "type": "function"
    },
    {
      "inputs": [
        {
          "internalType": "uint256",
          "name": "_campaignId",
          "type": "uint256"
        },
        {
          "internalType": "uint256",
          "name": "contributionAmount",
          "type": "uint256"
        }
      ],
      "name": "contribute",
      "outputs": [],
      "stateMutability": "payable",
      "type": "function"
    },
    {
      "inputs": [
        {
          "internalType": "uint256",
          "name": "",
          "type": "uint256"
        },
        {
          "internalType": "address",
          "name": "",
          "type": "address"
        }
      ],
      "name": "contributions",
      "outputs": [
        {
          "internalType": "uint256",
          "name": "",
          "type": "uint256"
        }
      ],
      "stateMutability": "view",
      "type": "function"
    },
    {
      "inputs": [
        {
          "internalType": "string",
          "name": "_ipfs",
          "type": "string"
        },
        {
          "internalType": "string",
          "name": "_club",
          "type": "string"
        },
        {
          "internalType": "uint256",
          "name": "_goalAmount",
          "type": "uint256"
        },
        {
          "internalType": "uint256",
          "name": "_endCampaign",
          "type": "uint256"
        }
      ],
      "name": "createCampaign",
      "outputs": [],
      "stateMutability": "nonpayable",
      "type": "function"
    },
    {
      "inputs": [],
      "name": "fundToken",
      "outputs": [
        {
          "internalType": "contract ERC20",
          "name": "",
          "type": "address"
        }
      ],
      "stateMutability": "view",
      "type": "function"
    },
    {
      "inputs": [
        {
          "internalType": "string",
          "name": "_club",
          "type": "string"
        }
      ],
      "name": "getAllCampaignsByClub",
      "outputs": [
        {
          "components": [
            {
              "internalType": "address",
              "name": "creator",
              "type": "address"
            },
            {
              "internalType": "string",
              "name": "ipfs",
              "type": "string"
            },
            {
              "internalType": "string",
              "name": "club",
              "type": "string"
            },
            {
              "internalType": "uint256",
              "name": "goalAmount",
              "type": "uint256"
            },
            {
              "internalType": "uint256",
              "name": "currentAmount",
              "type": "uint256"
            },
            {
              "internalType": "bool",
              "name": "finalized",
              "type": "bool"
            },
            {
              "internalType": "uint256",
              "name": "endCampaign",
              "type": "uint256"
            }
          ],
          "internalType": "struct Fundraising.Campaign[]",
          "name": "",
          "type": "tuple[]"
        }
      ],
      "stateMutability": "view",
      "type": "function"
    },
    {
      "inputs": [],
      "name": "getCampaignCount",
      "outputs": [
        {
          "internalType": "uint256",
          "name": "",
          "type": "uint256"
        }
      ],
      "stateMutability": "view",
      "type": "function"
    },
    {
      "inputs": [],
      "name": "getCampaigns",
      "outputs": [
        {
          "components": [
            {
              "internalType": "address",
              "name": "creator",
              "type": "address"
            },
            {
              "internalType": "string",
              "name": "ipfs",
              "type": "string"
            },
            {
              "internalType": "string",
              "name": "club",
              "type": "string"
            },
            {
              "internalType": "uint256",
              "name": "goalAmount",
              "type": "uint256"
            },
            {
              "internalType": "uint256",
              "name": "currentAmount",
              "type": "uint256"
            },
            {
              "internalType": "bool",
              "name": "finalized",
              "type": "bool"
            },
            {
              "internalType": "uint256",
              "name": "endCampaign",
              "type": "uint256"
            }
          ],
          "internalType": "struct Fundraising.Campaign[]",
          "name": "",
          "type": "tuple[]"
        }
      ],
      "stateMutability": "view",
      "type": "function"
    },
    {
      "inputs": [
        {
          "internalType": "address",
          "name": "test",
          "type": "address"
        }
      ],
      "name": "getFundToken",
      "outputs": [
        {
          "internalType": "uint256",
          "name": "",
          "type": "uint256"
        }
      ],
      "stateMutability": "view",
      "type": "function"
    },
    {
      "inputs": [],
      "name": "owner",
      "outputs": [
        {
          "internalType": "address",
          "name": "",
          "type": "address"
        }
      ],
      "stateMutability": "view",
      "type": "function"
    },
    {
      "inputs": [],
      "name": "stablecoin",
      "outputs": [
        {
          "internalType": "contract ERC20",
          "name": "",
          "type": "address"
        }
      ],
      "stateMutability": "view",
      "type": "function"
    },
    {
      "inputs": [
        {
          "internalType": "address",
          "name": "_newStableCoin",
          "type": "address"
        }
      ],
      "name": "switchStableCoin",
      "outputs": [],
      "stateMutability": "nonpayable",
      "type": "function"
    }
  ],
  "transactionHash": "0xf3311fd41df010bc9b804dc4eca63df67405d8edd6ae814957199c41420be5f4",
  "args": [
    "0xDDa0648FA8c9cD593416EC37089C2a2E6060B45c"
  ],
  "numDeployments": 3,
  "solcInputHash": "d9517e60f2a9ed1b14e0ad954f88e522",
  "bytecode": "0x60806040523480156200001157600080fd5b50604051620027f5380380620027f58339810160408190526200003491620000b5565b600480546001600160a01b031916331790556040516200005490620000a7565b604051809103906000f08015801562000071573d6000803e3d6000fd5b50600280546001600160a01b039283166001600160a01b03199182161790915560038054939092169216919091179055620000e7565b610caf8062001b4683390190565b600060208284031215620000c857600080fd5b81516001600160a01b0381168114620000e057600080fd5b9392505050565b611a4f80620000f76000396000f3fe6080604052600436106100c25760003560e01c80638da5cb5b1161007f578063a318f26911610059578063a318f2691461022a578063a6b036331461024a578063e9cbd8221461025f578063ea8f386a1461027f57600080fd5b80638da5cb5b146101d557806395f07936146101f55780639623c4641461020a57600080fd5b8063141961bc146100c75780631e3cb670146101035780633d891f591461013057806350adcdb7146101735780636caa9218146101ab5780638c590917146101c0575b600080fd5b3480156100d357600080fd5b506100e76100e23660046113f7565b61029f565b6040516100fa9796959493929190611456565b60405180910390f35b34801561010f57600080fd5b5061012361011e366004611556565b61040e565b6040516100fa9190611593565b34801561013c57600080fd5b5061016561014b366004611675565b600060208181529281526040808220909352908152205481565b6040519081526020016100fa565b34801561017f57600080fd5b50600254610193906001600160a01b031681565b6040516001600160a01b0390911681526020016100fa565b3480156101b757600080fd5b50600154610165565b6101d36101ce3660046116a1565b610752565b005b3480156101e157600080fd5b50600454610193906001600160a01b031681565b34801561020157600080fd5b506101d3610c00565b34801561021657600080fd5b506101d36102253660046116c3565b610c8b565b34801561023657600080fd5b506101d36102453660046116e5565b610d19565b34801561025657600080fd5b50610123610e74565b34801561026b57600080fd5b50600354610193906001600160a01b031681565b34801561028b57600080fd5b5061016561029a3660046116c3565b611040565b600181815481106102af57600080fd5b6000918252602090912060079091020180546001820180546001600160a01b039092169350906102de90611759565b80601f016020809104026020016040519081016040528092919081815260200182805461030a90611759565b80156103575780601f1061032c57610100808354040283529160200191610357565b820191906000526020600020905b81548152906001019060200180831161033a57829003601f168201915b50505050509080600201805461036c90611759565b80601f016020809104026020016040519081016040528092919081815260200182805461039890611759565b80156103e55780601f106103ba576101008083540402835291602001916103e5565b820191906000526020600020905b8154815290600101906020018083116103c857829003601f168201915b5050506003840154600485015460058601546006909601549495919490935060ff909116915087565b60606000805b6001548110156104845783805190602001206001828154811061043957610439611793565b906000526020600020906007020160020160405161045791906117a9565b604051809103902003610472578161046e81611835565b9250505b8061047c81611835565b915050610414565b5060008167ffffffffffffffff8111156104a0576104a06114b3565b60405190808252806020026020018201604052801561051c57816020015b6105096040518060e0016040528060006001600160a01b0316815260200160608152602001606081526020016000815260200160008152602001600015158152602001600081525090565b8152602001906001900390816104be5790505b5090506000805b6001548110156107485785805190602001206001828154811061054857610548611793565b906000526020600020906007020160020160405161056691906117a9565b604051809103902003610736576001818154811061058657610586611793565b60009182526020918290206040805160e0810190915260079092020180546001600160a01b0316825260018101805492939192918401916105c690611759565b80601f01602080910402602001604051908101604052809291908181526020018280546105f290611759565b801561063f5780601f106106145761010080835404028352916020019161063f565b820191906000526020600020905b81548152906001019060200180831161062257829003601f168201915b5050505050815260200160028201805461065890611759565b80601f016020809104026020016040519081016040528092919081815260200182805461068490611759565b80156106d15780601f106106a6576101008083540402835291602001916106d1565b820191906000526020600020905b8154815290600101906020018083116106b457829003601f168201915b50505091835250506003820154602082015260048201546040820152600582015460ff1615156060820152600690910154608090910152835184908490811061071c5761071c611793565b6020026020010181905250818061073290611835565b9250505b8061074081611835565b915050610523565b5090949350505050565b60015482106107a85760405162461bcd60e51b815260206004820152601760248201527f43616d706169676e20646f6573206e6f7420657869737400000000000000000060448201526064015b60405180910390fd5b600182815481106107bb576107bb611793565b600091825260209091206005600790920201015460ff161561081f5760405162461bcd60e51b815260206004820152601d60248201527f43616d706169676e20697320616c72656164792066696e616c697a6564000000604482015260640161079f565b6003546040516370a0823160e01b815233600482015282916001600160a01b0316906370a0823190602401602060405180830381865afa158015610867573d6000803e3d6000fd5b505050506040513d601f19601f8201168201806040525081019061088b919061184e565b10156108d05760405162461bcd60e51b8152602060048201526014602482015273496e73756666696369656e742062616c616e636560601b604482015260640161079f565b42600183815481106108e4576108e4611793565b9060005260206000209060070201600601541061093c5760405162461bcd60e51b8152602060048201526016602482015275151a194818d85b5c185a59db881a185cc8195b99195960521b604482015260640161079f565b6003546040516323b872dd60e01b8152336004820152306024820152604481018390526001600160a01b03909116906323b872dd906064016020604051808303816000875af1158015610993573d6000803e3d6000fd5b505050506040513d601f19601f820116820180604052508101906109b79190611867565b610a035760405162461bcd60e51b815260206004820152601a60248201527f537461626c65636f696e207472616e73666572206661696c6564000000000000604482015260640161079f565b8060018381548110610a1757610a17611793565b90600052602060002090600702016004016000828254610a379190611889565b9091555050604051339083907f307c1c8dcf9e5e0b374f6c475ff7c473dd02a9248096afa14405976e4ea1eb6a90600090a360018281548110610a7c57610a7c611793565b90600052602060002090600702016003015460018381548110610aa157610aa1611793565b90600052602060002090600702016004015410610aec5760405182907ffbfd8ab7c24300fa9888cd721c8565a7da56759384781283684dcf7c7c4a846b90600090a2610aec826110b5565b6000610af960648361189c565b610b049060146118be565b60025460405163a9059cbb60e01b8152336004820152602481018390529192506001600160a01b03169063a9059cbb906044016020604051808303816000875af1158015610b56573d6000803e3d6000fd5b505050506040513d601f19601f82011682018060405250810190610b7a9190611867565b610bc65760405162461bcd60e51b815260206004820152601960248201527f46756e64546f6b656e207472616e73666572206661696c656400000000000000604482015260640161079f565b60405181815233907fb2dcc2cda2b117a3db32eada3779068fa20eb57bd229145a69e6750088b887349060200160405180910390a2505050565b60005b600154811015610c885760018181548110610c2057610c20611793565b600091825260209091206005600790920201015460ff16158015610c68575060018181548110610c5257610c52611793565b9060005260206000209060070201600601544210155b15610c7657610c76816110b5565b80610c8081611835565b915050610c03565b50565b6004546001600160a01b03163314610cf75760405162461bcd60e51b815260206004820152602960248201527f4f6e6c7920746865206f776e65722063616e206368616e67652074686520737460448201526830b136329031b7b4b760b91b606482015260840161079f565b600380546001600160a01b0319166001600160a01b0392909216919091179055565b6040805160e081018252338152602081018681529181018590526060810184905260006080820181905260a0820181905260c08201849052600180548082018255915281517fb10e2d527612073b26eecdfd717e6a320cf44b4afac2b0732d9fcbe2b7fa0cf6600790920291820180546001600160a01b0319166001600160a01b0390921691909117815592519192917fb10e2d527612073b26eecdfd717e6a320cf44b4afac2b0732d9fcbe2b7fa0cf790910190610dd89082611924565b5060408201516002820190610ded9082611924565b50606082015160038201556080820151600482015560a082015160058201805460ff191691151591909117905560c090910151600690910155600180543391610e35916119e4565b7f825fb10f7650ed27414d6f86acdf7d5946927d9b25001f045f1a2435deec02fe8685604051610e669291906119f7565b60405180910390a350505050565b60606001805480602002602001604051908101604052809291908181526020016000905b828210156110375760008481526020908190206040805160e081019091526007850290910180546001600160a01b031682526001810180549293919291840191610ee190611759565b80601f0160208091040260200160405190810160405280929190818152602001828054610f0d90611759565b8015610f5a5780601f10610f2f57610100808354040283529160200191610f5a565b820191906000526020600020905b815481529060010190602001808311610f3d57829003601f168201915b50505050508152602001600282018054610f7390611759565b80601f0160208091040260200160405190810160405280929190818152602001828054610f9f90611759565b8015610fec5780601f10610fc157610100808354040283529160200191610fec565b820191906000526020600020905b815481529060010190602001808311610fcf57829003601f168201915b5050509183525050600382015460208083019190915260048301546040830152600583015460ff16151560608301526006909201546080909101529082526001929092019101610e98565b50505050905090565b6002546040516370a0823160e01b81526001600160a01b03838116600483015260009216906370a0823190602401602060405180830381865afa15801561108b573d6000803e3d6000fd5b505050506040513d601f19601f820116820180604052508101906110af919061184e565b92915050565b6000600182815481106110ca576110ca611793565b60009182526020918290206040805160e0810190915260079092020180546001600160a01b03168252600181018054929391929184019161110a90611759565b80601f016020809104026020016040519081016040528092919081815260200182805461113690611759565b80156111835780601f1061115857610100808354040283529160200191611183565b820191906000526020600020905b81548152906001019060200180831161116657829003601f168201915b5050505050815260200160028201805461119c90611759565b80601f01602080910402602001604051908101604052809291908181526020018280546111c890611759565b80156112155780601f106111ea57610100808354040283529160200191611215565b820191906000526020600020905b8154815290600101906020018083116111f857829003601f168201915b50505091835250506003820154602082015260048201546040820152600582015460ff161515606082015260069091015460809091015260a0810151909150156112a15760405162461bcd60e51b815260206004820152601d60248201527f43616d706169676e20697320616c72656164792066696e616c697a6564000000604482015260640161079f565b6003548151608083015160405163a9059cbb60e01b81526001600160a01b039283166004820152602481019190915291169063a9059cbb906044016020604051808303816000875af11580156112fb573d6000803e3d6000fd5b505050506040513d601f19601f8201168201806040525081019061131f9190611867565b61136b5760405162461bcd60e51b815260206004820152601760248201527f537461626c65636f696e206772616e74206661696c6564000000000000000000604482015260640161079f565b600180838154811061137f5761137f611793565b906000526020600020906007020160050160006101000a81548160ff021916908315150217905550336001600160a01b0316827f06eff44b8e0fd0aab29b8ab14df9b9e86ec2a9068861c573ec59e362fd246858836020015184608001516040516113eb9291906119f7565b60405180910390a35050565b60006020828403121561140957600080fd5b5035919050565b6000815180845260005b818110156114365760208185018101518683018201520161141a565b506000602082860101526020601f19601f83011685010191505092915050565b6001600160a01b038816815260e06020820181905260009061147a90830189611410565b828103604084015261148c8189611410565b60608401979097525050608081019390935290151560a083015260c0909101529392505050565b634e487b7160e01b600052604160045260246000fd5b600082601f8301126114da57600080fd5b813567ffffffffffffffff808211156114f5576114f56114b3565b604051601f8301601f19908116603f0116810190828211818310171561151d5761151d6114b3565b8160405283815286602085880101111561153657600080fd5b836020870160208301376000602085830101528094505050505092915050565b60006020828403121561156857600080fd5b813567ffffffffffffffff81111561157f57600080fd5b61158b848285016114c9565b949350505050565b60006020808301818452808551808352604092508286019150828160051b87010184880160005b8381101561164b57888303603f19018552815180516001600160a01b031684528781015160e0898601819052906115f382870182611410565b915050878201518582038987015261160b8282611410565b606084810151908801526080808501519088015260a08085015115159088015260c0938401519390960192909252505093860193908601906001016115ba565b509098975050505050505050565b80356001600160a01b038116811461167057600080fd5b919050565b6000806040838503121561168857600080fd5b8235915061169860208401611659565b90509250929050565b600080604083850312156116b457600080fd5b50508035926020909101359150565b6000602082840312156116d557600080fd5b6116de82611659565b9392505050565b600080600080608085870312156116fb57600080fd5b843567ffffffffffffffff8082111561171357600080fd5b61171f888389016114c9565b9550602087013591508082111561173557600080fd5b50611742878288016114c9565b949794965050505060408301359260600135919050565b600181811c9082168061176d57607f821691505b60208210810361178d57634e487b7160e01b600052602260045260246000fd5b50919050565b634e487b7160e01b600052603260045260246000fd5b60008083546117b781611759565b600182811680156117cf57600181146117e457611813565b60ff1984168752821515830287019450611813565b8760005260208060002060005b8581101561180a5781548a8201529084019082016117f1565b50505082870194505b50929695505050505050565b634e487b7160e01b600052601160045260246000fd5b6000600182016118475761184761181f565b5060010190565b60006020828403121561186057600080fd5b5051919050565b60006020828403121561187957600080fd5b815180151581146116de57600080fd5b808201808211156110af576110af61181f565b6000826118b957634e487b7160e01b600052601260045260246000fd5b500490565b80820281158282048414176110af576110af61181f565b601f82111561191f57600081815260208120601f850160051c810160208610156118fc5750805b601f850160051c820191505b8181101561191b57828155600101611908565b5050505b505050565b815167ffffffffffffffff81111561193e5761193e6114b3565b6119528161194c8454611759565b846118d5565b602080601f831160018114611987576000841561196f5750858301515b600019600386901b1c1916600185901b17855561191b565b600085815260208120601f198616915b828110156119b657888601518255948401946001909101908401611997565b50858210156119d45787850151600019600388901b60f8161c191681555b5050505050600190811b01905550565b818103818111156110af576110af61181f565b604081526000611a0a6040830185611410565b9050826020830152939250505056fea264697066735822122063762425df326fa9d594f2c3199a8c3d4c960ec5bd1f5d400fd12b870e5f4c0d64736f6c6343000811003360806040523480156200001157600080fd5b5060405180604001604052806009815260200168233ab7322a37b5b2b760b91b8152506040518060400160405280600381526020016246544b60e81b815250816003908162000061919062000224565b50600462000070828262000224565b505050620000aa3362000088620000b060201b60201c565b6200009590600a62000405565b620000a490620f42406200041d565b620000b5565b6200044d565b601290565b6001600160a01b038216620001105760405162461bcd60e51b815260206004820152601f60248201527f45524332303a206d696e7420746f20746865207a65726f206164647265737300604482015260640160405180910390fd5b806002600082825462000124919062000437565b90915550506001600160a01b038216600081815260208181526040808320805486019055518481527fddf252ad1be2c89b69c2b068fc378daa952ba7f163c4a11628f55a4df523b3ef910160405180910390a35050565b505050565b634e487b7160e01b600052604160045260246000fd5b600181811c90821680620001ab57607f821691505b602082108103620001cc57634e487b7160e01b600052602260045260246000fd5b50919050565b601f8211156200017b57600081815260208120601f850160051c81016020861015620001fb5750805b601f850160051c820191505b818110156200021c5782815560010162000207565b505050505050565b81516001600160401b0381111562000240576200024062000180565b620002588162000251845462000196565b84620001d2565b602080601f831160018114620002905760008415620002775750858301515b600019600386901b1c1916600185901b1785556200021c565b600085815260208120601f198616915b82811015620002c157888601518255948401946001909101908401620002a0565b5085821015620002e05787850151600019600388901b60f8161c191681555b5050505050600190811b01905550565b634e487b7160e01b600052601160045260246000fd5b600181815b80851115620003475781600019048211156200032b576200032b620002f0565b808516156200033957918102915b93841c93908002906200030b565b509250929050565b6000826200036057506001620003ff565b816200036f57506000620003ff565b81600181146200038857600281146200039357620003b3565b6001915050620003ff565b60ff841115620003a757620003a7620002f0565b50506001821b620003ff565b5060208310610133831016604e8410600b8410161715620003d8575081810a620003ff565b620003e4838362000306565b8060001904821115620003fb57620003fb620002f0565b0290505b92915050565b60006200041660ff8416836200034f565b9392505050565b8082028115828204841417620003ff57620003ff620002f0565b80820180821115620003ff57620003ff620002f0565b610852806200045d6000396000f3fe608060405234801561001057600080fd5b50600436106100a95760003560e01c80633950935111610071578063395093511461012357806370a082311461013657806395d89b411461015f578063a457c2d714610167578063a9059cbb1461017a578063dd62ed3e1461018d57600080fd5b806306fdde03146100ae578063095ea7b3146100cc57806318160ddd146100ef57806323b872dd14610101578063313ce56714610114575b600080fd5b6100b66101a0565b6040516100c3919061069c565b60405180910390f35b6100df6100da366004610706565b610232565b60405190151581526020016100c3565b6002545b6040519081526020016100c3565b6100df61010f366004610730565b61024c565b604051601281526020016100c3565b6100df610131366004610706565b610270565b6100f361014436600461076c565b6001600160a01b031660009081526020819052604090205490565b6100b6610292565b6100df610175366004610706565b6102a1565b6100df610188366004610706565b610321565b6100f361019b36600461078e565b61032f565b6060600380546101af906107c1565b80601f01602080910402602001604051908101604052809291908181526020018280546101db906107c1565b80156102285780601f106101fd57610100808354040283529160200191610228565b820191906000526020600020905b81548152906001019060200180831161020b57829003601f168201915b5050505050905090565b60003361024081858561035a565b60019150505b92915050565b60003361025a85828561047e565b6102658585856104f8565b506001949350505050565b600033610240818585610283838361032f565b61028d91906107fb565b61035a565b6060600480546101af906107c1565b600033816102af828661032f565b9050838110156103145760405162461bcd60e51b815260206004820152602560248201527f45524332303a2064656372656173656420616c6c6f77616e63652062656c6f77604482015264207a65726f60d81b60648201526084015b60405180910390fd5b610265828686840361035a565b6000336102408185856104f8565b6001600160a01b03918216600090815260016020908152604080832093909416825291909152205490565b6001600160a01b0383166103bc5760405162461bcd60e51b8152602060048201526024808201527f45524332303a20617070726f76652066726f6d20746865207a65726f206164646044820152637265737360e01b606482015260840161030b565b6001600160a01b03821661041d5760405162461bcd60e51b815260206004820152602260248201527f45524332303a20617070726f766520746f20746865207a65726f206164647265604482015261737360f01b606482015260840161030b565b6001600160a01b0383811660008181526001602090815260408083209487168084529482529182902085905590518481527f8c5be1e5ebec7d5bd14f71427d1e84f3dd0314c0f7b2291e5b200ac8c7c3b925910160405180910390a3505050565b600061048a848461032f565b905060001981146104f257818110156104e55760405162461bcd60e51b815260206004820152601d60248201527f45524332303a20696e73756666696369656e7420616c6c6f77616e6365000000604482015260640161030b565b6104f2848484840361035a565b50505050565b6001600160a01b03831661055c5760405162461bcd60e51b815260206004820152602560248201527f45524332303a207472616e736665722066726f6d20746865207a65726f206164604482015264647265737360d81b606482015260840161030b565b6001600160a01b0382166105be5760405162461bcd60e51b815260206004820152602360248201527f45524332303a207472616e7366657220746f20746865207a65726f206164647260448201526265737360e81b606482015260840161030b565b6001600160a01b038316600090815260208190526040902054818110156106365760405162461bcd60e51b815260206004820152602660248201527f45524332303a207472616e7366657220616d6f756e7420657863656564732062604482015265616c616e636560d01b606482015260840161030b565b6001600160a01b03848116600081815260208181526040808320878703905593871680835291849020805487019055925185815290927fddf252ad1be2c89b69c2b068fc378daa952ba7f163c4a11628f55a4df523b3ef910160405180910390a36104f2565b600060208083528351808285015260005b818110156106c9578581018301518582016040015282016106ad565b506000604082860101526040601f19601f8301168501019250505092915050565b80356001600160a01b038116811461070157600080fd5b919050565b6000806040838503121561071957600080fd5b610722836106ea565b946020939093013593505050565b60008060006060848603121561074557600080fd5b61074e846106ea565b925061075c602085016106ea565b9150604084013590509250925092565b60006020828403121561077e57600080fd5b610787826106ea565b9392505050565b600080604083850312156107a157600080fd5b6107aa836106ea565b91506107b8602084016106ea565b90509250929050565b600181811c908216806107d557607f821691505b6020821081036107f557634e487b7160e01b600052602260045260246000fd5b50919050565b8082018082111561024657634e487b7160e01b600052601160045260246000fdfea26469706673582212209d6b71899e8042d8f63b967b29402752f852c11745a61d187b0b454fd9a1d76364736f6c63430008110033",
  "devdoc": {
    "kind": "dev",
    "methods": {},
    "version": 1
  },
  "userdoc": {
    "kind": "user",
    "methods": {},
    "version": 1
  },
  "storageLayout": {
    "storage": [
      {
        "astId": 758,
        "contract": "contracts/Fundraising.sol:Fundraising",
        "label": "contributions",
        "offset": 0,
        "slot": "0",
        "type": "t_mapping(t_uint256,t_mapping(t_address,t_uint256))"
      },
      {
        "astId": 762,
        "contract": "contracts/Fundraising.sol:Fundraising",
        "label": "campaigns",
        "offset": 0,
        "slot": "1",
        "type": "t_array(t_struct(Campaign)752_storage)dyn_storage"
      },
      {
        "astId": 765,
        "contract": "contracts/Fundraising.sol:Fundraising",
        "label": "fundToken",
        "offset": 0,
        "slot": "2",
        "type": "t_contract(ERC20)586"
      },
      {
        "astId": 768,
        "contract": "contracts/Fundraising.sol:Fundraising",
        "label": "stablecoin",
        "offset": 0,
        "slot": "3",
        "type": "t_contract(ERC20)586"
      },
      {
        "astId": 770,
        "contract": "contracts/Fundraising.sol:Fundraising",
        "label": "owner",
        "offset": 0,
        "slot": "4",
        "type": "t_address"
      }
    ],
    "types": {
      "t_address": {
        "encoding": "inplace",
        "label": "address",
        "numberOfBytes": "20"
      },
      "t_array(t_struct(Campaign)752_storage)dyn_storage": {
        "base": "t_struct(Campaign)752_storage",
        "encoding": "dynamic_array",
        "label": "struct Fundraising.Campaign[]",
        "numberOfBytes": "32"
      },
      "t_bool": {
        "encoding": "inplace",
        "label": "bool",
        "numberOfBytes": "1"
      },
      "t_contract(ERC20)586": {
        "encoding": "inplace",
        "label": "contract ERC20",
        "numberOfBytes": "20"
      },
      "t_mapping(t_address,t_uint256)": {
        "encoding": "mapping",
        "key": "t_address",
        "label": "mapping(address => uint256)",
        "numberOfBytes": "32",
        "value": "t_uint256"
      },
      "t_mapping(t_uint256,t_mapping(t_address,t_uint256))": {
        "encoding": "mapping",
        "key": "t_uint256",
        "label": "mapping(uint256 => mapping(address => uint256))",
        "numberOfBytes": "32",
        "value": "t_mapping(t_address,t_uint256)"
      },
      "t_string_storage": {
        "encoding": "bytes",
        "label": "string",
        "numberOfBytes": "32"
      },
      "t_struct(Campaign)752_storage": {
        "encoding": "inplace",
        "label": "struct Fundraising.Campaign",
        "members": [
          {
            "astId": 739,
            "contract": "contracts/Fundraising.sol:Fundraising",
            "label": "creator",
            "offset": 0,
            "slot": "0",
            "type": "t_address"
          },
          {
            "astId": 741,
            "contract": "contracts/Fundraising.sol:Fundraising",
            "label": "ipfs",
            "offset": 0,
            "slot": "1",
            "type": "t_string_storage"
          },
          {
            "astId": 743,
            "contract": "contracts/Fundraising.sol:Fundraising",
            "label": "club",
            "offset": 0,
            "slot": "2",
            "type": "t_string_storage"
          },
          {
            "astId": 745,
            "contract": "contracts/Fundraising.sol:Fundraising",
            "label": "goalAmount",
            "offset": 0,
            "slot": "3",
            "type": "t_uint256"
          },
          {
            "astId": 747,
            "contract": "contracts/Fundraising.sol:Fundraising",
            "label": "currentAmount",
            "offset": 0,
            "slot": "4",
            "type": "t_uint256"
          },
          {
            "astId": 749,
            "contract": "contracts/Fundraising.sol:Fundraising",
            "label": "finalized",
            "offset": 0,
            "slot": "5",
            "type": "t_bool"
          },
          {
            "astId": 751,
            "contract": "contracts/Fundraising.sol:Fundraising",
            "label": "endCampaign",
            "offset": 0,
            "slot": "6",
            "type": "t_uint256"
          }
        ],
        "numberOfBytes": "224"
      },
      "t_uint256": {
        "encoding": "inplace",
        "label": "uint256",
        "numberOfBytes": "32"
      }
    }
  }
}